{
  "_format": "hh-sol-artifact-1",
  "contractName": "FakeNFTMarketplace",
  "sourceName": "contracts/FakeNFTMarketplace.sol",
  "abi": [
    {
      "inputs": [
        {
          "internalType": "uint256",
          "name": "_tokenId",
          "type": "uint256"
        }
      ],
      "name": "available",
      "outputs": [
        {
          "internalType": "bool",
          "name": "",
          "type": "bool"
        }
      ],
      "stateMutability": "view",
      "type": "function"
    },
    {
      "inputs": [],
      "name": "getPrice",
      "outputs": [
        {
          "internalType": "uint256",
          "name": "",
          "type": "uint256"
        }
      ],
      "stateMutability": "view",
      "type": "function"
    },
    {
      "inputs": [
        {
          "internalType": "uint256",
          "name": "_tokenId",
          "type": "uint256"
        }
      ],
      "name": "purchase",
      "outputs": [],
      "stateMutability": "payable",
      "type": "function"
    },
    {
      "inputs": [
        {
          "internalType": "uint256",
          "name": "",
          "type": "uint256"
        }
      ],
      "name": "tokens",
      "outputs": [
        {
          "internalType": "address",
          "name": "",
          "type": "address"
        }
      ],
      "stateMutability": "view",
      "type": "function"
    }
  ],
  "bytecode": "0x608060405267016345785d8a000060015534801561001c57600080fd5b506104238061002c6000396000f3fe60806040526004361061003f5760003560e01c80634f64b2be1461004457806396e494e81461008157806398d5fdca146100be578063efef39a1146100e9575b600080fd5b34801561005057600080fd5b5061006b6004803603810190610066919061026a565b610105565b60405161007891906102e3565b60405180910390f35b34801561008d57600080fd5b506100a860048036038101906100a3919061026a565b610138565b6040516100b591906102fe565b60405180910390f35b3480156100ca57600080fd5b506100d36101b3565b6040516100e09190610339565b60405180910390f35b61010360048036038101906100fe919061026a565b6101bd565b005b60006020528060005260406000206000915054906101000a900473ffffffffffffffffffffffffffffffffffffffff1681565b60008073ffffffffffffffffffffffffffffffffffffffff1660008084815260200190815260200160002060009054906101000a900473ffffffffffffffffffffffffffffffffffffffff1673ffffffffffffffffffffffffffffffffffffffff1614156101a957600190506101ae565b600090505b919050565b6000600154905090565b6001543414610201576040517f08c379a00000000000000000000000000000000000000000000000000000000081526004016101f890610319565b60405180910390fd5b3360008083815260200190815260200160002060006101000a81548173ffffffffffffffffffffffffffffffffffffffff021916908373ffffffffffffffffffffffffffffffffffffffff16021790555050565b600081359050610264816103d6565b92915050565b60006020828403121561027c57600080fd5b600061028a84828501610255565b91505092915050565b61029c81610365565b82525050565b6102ab81610377565b82525050565b60006102be601883610354565b91506102c9826103ad565b602082019050919050565b6102dd816103a3565b82525050565b60006020820190506102f86000830184610293565b92915050565b600060208201905061031360008301846102a2565b92915050565b60006020820190508181036000830152610332816102b1565b9050919050565b600060208201905061034e60008301846102d4565b92915050565b600082825260208201905092915050565b600061037082610383565b9050919050565b60008115159050919050565b600073ffffffffffffffffffffffffffffffffffffffff82169050919050565b6000819050919050565b7f54686973204e465420636f73747320302e312065746865720000000000000000600082015250565b6103df816103a3565b81146103ea57600080fd5b5056fea2646970667358221220bf69448578a5e7e91ce1800be9da0417b97c7625c9d30378665f16d6128cf6ce64736f6c63430008040033",
  "linkReferences": {},
  "deployedLinkReferences": {}
}