{
  "_format": "hh-sol-artifact-1",
  "contractName": "CryptoDevsDAO",
  "sourceName": "contracts/CryptoDevsDAO.sol",
  "abi": [
    {
      "inputs": [
        {
          "internalType": "address",
          "name": "_nftMarketplace",
          "type": "address"
        },
        {
          "internalType": "address",
          "name": "_cryptoDevsNFT",
          "type": "address"
        }
      ],
      "stateMutability": "payable",
      "type": "constructor"
    },
    {
      "anonymous": false,
      "inputs": [
        {
          "indexed": true,
          "internalType": "address",
          "name": "previousOwner",
          "type": "address"
        },
        {
          "indexed": true,
          "internalType": "address",
          "name": "newOwner",
          "type": "address"
        }
      ],
      "name": "OwnershipTransferred",
      "type": "event"
    },
    {
      "stateMutability": "payable",
      "type": "fallback"
    },
    {
      "inputs": [
        {
          "internalType": "uint256",
          "name": "_nftTokenId",
          "type": "uint256"
        }
      ],
      "name": "createProposal",
      "outputs": [
        {
          "internalType": "uint256",
          "name": "",
          "type": "uint256"
        }
      ],
      "stateMutability": "nonpayable",
      "type": "function"
    },
    {
      "inputs": [
        {
          "internalType": "uint256",
          "name": "proposalIndex",
          "type": "uint256"
        }
      ],
      "name": "executeProposal",
      "outputs": [],
      "stateMutability": "nonpayable",
      "type": "function"
    },
    {
      "inputs": [],
      "name": "numProposals",
      "outputs": [
        {
          "internalType": "uint256",
          "name": "",
          "type": "uint256"
        }
      ],
      "stateMutability": "view",
      "type": "function"
    },
    {
      "inputs": [],
      "name": "owner",
      "outputs": [
        {
          "internalType": "address",
          "name": "",
          "type": "address"
        }
      ],
      "stateMutability": "view",
      "type": "function"
    },
    {
      "inputs": [
        {
          "internalType": "uint256",
          "name": "",
          "type": "uint256"
        }
      ],
      "name": "proposals",
      "outputs": [
        {
          "internalType": "uint256",
          "name": "nftTokenId",
          "type": "uint256"
        },
        {
          "internalType": "uint256",
          "name": "deadline",
          "type": "uint256"
        },
        {
          "internalType": "uint256",
          "name": "yayVotes",
          "type": "uint256"
        },
        {
          "internalType": "uint256",
          "name": "nayVotes",
          "type": "uint256"
        },
        {
          "internalType": "bool",
          "name": "executed",
          "type": "bool"
        }
      ],
      "stateMutability": "view",
      "type": "function"
    },
    {
      "inputs": [],
      "name": "renounceOwnership",
      "outputs": [],
      "stateMutability": "nonpayable",
      "type": "function"
    },
    {
      "inputs": [
        {
          "internalType": "address",
          "name": "newOwner",
          "type": "address"
        }
      ],
      "name": "transferOwnership",
      "outputs": [],
      "stateMutability": "nonpayable",
      "type": "function"
    },
    {
      "inputs": [
        {
          "internalType": "uint256",
          "name": "proposalIndex",
          "type": "uint256"
        },
        {
          "internalType": "enum CryptoDevsDAO.Vote",
          "name": "vote",
          "type": "uint8"
        }
      ],
      "name": "voteOnProposal",
      "outputs": [],
      "stateMutability": "nonpayable",
      "type": "function"
    },
    {
      "inputs": [],
      "name": "withdrawEther",
      "outputs": [],
      "stateMutability": "nonpayable",
      "type": "function"
    },
    {
      "stateMutability": "payable",
      "type": "receive"
    }
  ],
  "bytecode": "0x608060405260405162001b6438038062001b648339818101604052810190620000299190620001b6565b620000496200003d620000d360201b60201c565b620000db60201b60201c565b81600160006101000a81548173ffffffffffffffffffffffffffffffffffffffff021916908373ffffffffffffffffffffffffffffffffffffffff16021790555080600260006101000a81548173ffffffffffffffffffffffffffffffffffffffff021916908373ffffffffffffffffffffffffffffffffffffffff160217905550505062000245565b600033905090565b60008060009054906101000a900473ffffffffffffffffffffffffffffffffffffffff169050816000806101000a81548173ffffffffffffffffffffffffffffffffffffffff021916908373ffffffffffffffffffffffffffffffffffffffff1602179055508173ffffffffffffffffffffffffffffffffffffffff168173ffffffffffffffffffffffffffffffffffffffff167f8be0079c531659141344cd1fd0a4f28419497f9722a3daafe3b4186f6b6457e060405160405180910390a35050565b600081519050620001b0816200022b565b92915050565b60008060408385031215620001ca57600080fd5b6000620001da858286016200019f565b9250506020620001ed858286016200019f565b9150509250929050565b600062000204826200020b565b9050919050565b600073ffffffffffffffffffffffffffffffffffffffff82169050919050565b6200023681620001f7565b81146200024257600080fd5b50565b61190f80620002556000396000f3fe60806040526004361061008a5760003560e01c8063715018a611610059578063715018a6146101655780637362377b1461017c5780638da5cb5b14610193578063efafb22e146101be578063f2fde38b146101e757610091565b8063013cf08b146100935780630d61b519146100d4578063400e3949146100fd5780635a43dc001461012857610091565b3661009157005b005b34801561009f57600080fd5b506100ba60048036038101906100b591906111ca565b610210565b6040516100cb95949392919061153f565b60405180910390f35b3480156100e057600080fd5b506100fb60048036038101906100f691906111ca565b610253565b005b34801561010957600080fd5b506101126105c8565b60405161011f9190611524565b60405180910390f35b34801561013457600080fd5b5061014f600480360381019061014a91906111ca565b6105ce565b60405161015c9190611524565b60405180910390f35b34801561017157600080fd5b5061017a61080d565b005b34801561018857600080fd5b50610191610895565b005b34801561019f57600080fd5b506101a8610961565b6040516101b591906113c0565b60405180910390f35b3480156101ca57600080fd5b506101e560048036038101906101e0919061121c565b61098a565b005b3480156101f357600080fd5b5061020e60048036038101906102099190611178565b610e89565b005b60036020528060005260406000206000915090508060000154908060010154908060020154908060030154908060040160009054906101000a900460ff16905085565b6000600260009054906101000a900473ffffffffffffffffffffffffffffffffffffffff1673ffffffffffffffffffffffffffffffffffffffff166370a08231336040518263ffffffff1660e01b81526004016102b091906113c0565b60206040518083038186803b1580156102c857600080fd5b505afa1580156102dc573d6000803e3d6000fd5b505050506040513d601f19601f8201168201806040525081019061030091906111f3565b11610340576040517f08c379a0000000000000000000000000000000000000000000000000000000008152600401610337906114c4565b60405180910390fd5b80426003600083815260200190815260200160002060010154111561039a576040517f08c379a000000000000000000000000000000000000000000000000000000000815260040161039190611404565b60405180910390fd5b600015156003600083815260200190815260200160002060040160009054906101000a900460ff16151514610404576040517f08c379a00000000000000000000000000000000000000000000000000000000081526004016103fb90611444565b60405180910390fd5b60006003600084815260200190815260200160002090508060030154816002015411156105a6576000600160009054906101000a900473ffffffffffffffffffffffffffffffffffffffff1673ffffffffffffffffffffffffffffffffffffffff166398d5fdca6040518163ffffffff1660e01b815260040160206040518083038186803b15801561049557600080fd5b505afa1580156104a9573d6000803e3d6000fd5b505050506040513d601f19601f820116820180604052508101906104cd91906111f3565b905080471015610512576040517f08c379a000000000000000000000000000000000000000000000000000000000815260040161050990611504565b60405180910390fd5b600160009054906101000a900473ffffffffffffffffffffffffffffffffffffffff1673ffffffffffffffffffffffffffffffffffffffff1663efef39a18284600001546040518363ffffffff1660e01b81526004016105729190611524565b6000604051808303818588803b15801561058b57600080fd5b505af115801561059f573d6000803e3d6000fd5b5050505050505b60018160040160006101000a81548160ff021916908315150217905550505050565b60045481565b600080600260009054906101000a900473ffffffffffffffffffffffffffffffffffffffff1673ffffffffffffffffffffffffffffffffffffffff166370a08231336040518263ffffffff1660e01b815260040161062c91906113c0565b60206040518083038186803b15801561064457600080fd5b505afa158015610658573d6000803e3d6000fd5b505050506040513d601f19601f8201168201806040525081019061067c91906111f3565b116106bc576040517f08c379a00000000000000000000000000000000000000000000000000000000081526004016106b3906114c4565b60405180910390fd5b600160009054906101000a900473ffffffffffffffffffffffffffffffffffffffff1673ffffffffffffffffffffffffffffffffffffffff166396e494e8836040518263ffffffff1660e01b81526004016107179190611524565b60206040518083038186803b15801561072f57600080fd5b505afa158015610743573d6000803e3d6000fd5b505050506040513d601f19601f8201168201806040525081019061076791906111a1565b6107a6576040517f08c379a000000000000000000000000000000000000000000000000000000000815260040161079d90611484565b60405180910390fd5b6000600360006004548152602001908152602001600020905082816000018190555061012c426107d691906115a3565b8160010181905550600460008154809291906107f190611675565b9190505550600160045461080591906115f9565b915050919050565b610815610f81565b73ffffffffffffffffffffffffffffffffffffffff16610833610961565b73ffffffffffffffffffffffffffffffffffffffff1614610889576040517f08c379a0000000000000000000000000000000000000000000000000000000008152600401610880906114e4565b60405180910390fd5b6108936000610f89565b565b61089d610f81565b73ffffffffffffffffffffffffffffffffffffffff166108bb610961565b73ffffffffffffffffffffffffffffffffffffffff1614610911576040517f08c379a0000000000000000000000000000000000000000000000000000000008152600401610908906114e4565b60405180910390fd5b610919610961565b73ffffffffffffffffffffffffffffffffffffffff166108fc479081150290604051600060405180830381858888f1935050505015801561095e573d6000803e3d6000fd5b50565b60008060009054906101000a900473ffffffffffffffffffffffffffffffffffffffff16905090565b6000600260009054906101000a900473ffffffffffffffffffffffffffffffffffffffff1673ffffffffffffffffffffffffffffffffffffffff166370a08231336040518263ffffffff1660e01b81526004016109e791906113c0565b60206040518083038186803b1580156109ff57600080fd5b505afa158015610a13573d6000803e3d6000fd5b505050506040513d601f19601f82011682018060405250810190610a3791906111f3565b11610a77576040517f08c379a0000000000000000000000000000000000000000000000000000000008152600401610a6e906114c4565b60405180910390fd5b8142600360008381526020019081526020016000206001015411610ad0576040517f08c379a0000000000000000000000000000000000000000000000000000000008152600401610ac790611464565b60405180910390fd5b60006003600085815260200190815260200160002090506000600260009054906101000a900473ffffffffffffffffffffffffffffffffffffffff1673ffffffffffffffffffffffffffffffffffffffff166370a08231336040518263ffffffff1660e01b8152600401610b4491906113c0565b60206040518083038186803b158015610b5c57600080fd5b505afa158015610b70573d6000803e3d6000fd5b505050506040513d601f19601f82011682018060405250810190610b9491906111f3565b90506000805b82811015610d8857610c57600260009054906101000a900473ffffffffffffffffffffffffffffffffffffffff1673ffffffffffffffffffffffffffffffffffffffff16632f745c5933846040518363ffffffff1660e01b8152600401610c029291906113db565b60206040518083038186803b158015610c1a57600080fd5b505afa158015610c2e573d6000803e3d6000fd5b505050506040513d601f19601f82011682018060405250810190610c5291906111f3565b61104d565b6000600260009054906101000a900473ffffffffffffffffffffffffffffffffffffffff1673ffffffffffffffffffffffffffffffffffffffff16632f745c5933846040518363ffffffff1660e01b8152600401610cb69291906113db565b60206040518083038186803b158015610cce57600080fd5b505afa158015610ce2573d6000803e3d6000fd5b505050506040513d601f19601f82011682018060405250810190610d0691906111f3565b90506000151585600501600083815260200190815260200160002060009054906101000a900460ff1615151415610d74578280610d4290611675565b935050600185600501600083815260200190815260200160002060006101000a81548160ff0219169083151502179055505b508080610d8090611675565b915050610b9a565b5060008111610dcc576040517f08c379a0000000000000000000000000000000000000000000000000000000008152600401610dc3906114a4565b60405180910390fd5b60006001811115610e06577f4e487b7100000000000000000000000000000000000000000000000000000000600052602160045260246000fd5b856001811115610e3f577f4e487b7100000000000000000000000000000000000000000000000000000000600052602160045260246000fd5b1415610e655780836002016000828254610e5991906115a3565b92505081905550610e81565b80836003016000828254610e7991906115a3565b925050819055505b505050505050565b610e91610f81565b73ffffffffffffffffffffffffffffffffffffffff16610eaf610961565b73ffffffffffffffffffffffffffffffffffffffff1614610f05576040517f08c379a0000000000000000000000000000000000000000000000000000000008152600401610efc906114e4565b60405180910390fd5b600073ffffffffffffffffffffffffffffffffffffffff168173ffffffffffffffffffffffffffffffffffffffff161415610f75576040517f08c379a0000000000000000000000000000000000000000000000000000000008152600401610f6c90611424565b60405180910390fd5b610f7e81610f89565b50565b600033905090565b60008060009054906101000a900473ffffffffffffffffffffffffffffffffffffffff169050816000806101000a81548173ffffffffffffffffffffffffffffffffffffffff021916908373ffffffffffffffffffffffffffffffffffffffff1602179055508173ffffffffffffffffffffffffffffffffffffffff168173ffffffffffffffffffffffffffffffffffffffff167f8be0079c531659141344cd1fd0a4f28419497f9722a3daafe3b4186f6b6457e060405160405180910390a35050565b6110e3816040516024016110619190611524565b6040516020818303038152906040527ff5b1bba9000000000000000000000000000000000000000000000000000000007bffffffffffffffffffffffffffffffffffffffffffffffffffffffff19166020820180517bffffffffffffffffffffffffffffffffffffffffffffffffffffffff83818316178352505050506110e6565b50565b60008151905060006a636f6e736f6c652e6c6f679050602083016000808483855afa5050505050565b60008135905061111e81611884565b92915050565b6000815190506111338161189b565b92915050565b600081359050611148816118b2565b92915050565b60008135905061115d816118c2565b92915050565b600081519050611172816118c2565b92915050565b60006020828403121561118a57600080fd5b60006111988482850161110f565b91505092915050565b6000602082840312156111b357600080fd5b60006111c184828501611124565b91505092915050565b6000602082840312156111dc57600080fd5b60006111ea8482850161114e565b91505092915050565b60006020828403121561120557600080fd5b600061121384828501611163565b91505092915050565b6000806040838503121561122f57600080fd5b600061123d8582860161114e565b925050602061124e85828601611139565b9150509250929050565b6112618161162d565b82525050565b6112708161163f565b82525050565b6000611283601583611592565b915061128e826116ed565b602082019050919050565b60006112a6602683611592565b91506112b182611716565b604082019050919050565b60006112c9601983611592565b91506112d482611765565b602082019050919050565b60006112ec601183611592565b91506112f78261178e565b602082019050919050565b600061130f601083611592565b915061131a826117b7565b602082019050919050565b6000611332600d83611592565b915061133d826117e0565b602082019050919050565b6000611355601083611592565b915061136082611809565b602082019050919050565b6000611378602083611592565b915061138382611832565b602082019050919050565b600061139b601083611592565b91506113a68261185b565b602082019050919050565b6113ba8161166b565b82525050565b60006020820190506113d56000830184611258565b92915050565b60006040820190506113f06000830185611258565b6113fd60208301846113b1565b9392505050565b6000602082019050818103600083015261141d81611276565b9050919050565b6000602082019050818103600083015261143d81611299565b9050919050565b6000602082019050818103600083015261145d816112bc565b9050919050565b6000602082019050818103600083015261147d816112df565b9050919050565b6000602082019050818103600083015261149d81611302565b9050919050565b600060208201905081810360008301526114bd81611325565b9050919050565b600060208201905081810360008301526114dd81611348565b9050919050565b600060208201905081810360008301526114fd8161136b565b9050919050565b6000602082019050818103600083015261151d8161138e565b9050919050565b600060208201905061153960008301846113b1565b92915050565b600060a08201905061155460008301886113b1565b61156160208301876113b1565b61156e60408301866113b1565b61157b60608301856113b1565b6115886080830184611267565b9695505050505050565b600082825260208201905092915050565b60006115ae8261166b565b91506115b98361166b565b9250827fffffffffffffffffffffffffffffffffffffffffffffffffffffffffffffffff038211156115ee576115ed6116be565b5b828201905092915050565b60006116048261166b565b915061160f8361166b565b925082821015611622576116216116be565b5b828203905092915050565b60006116388261164b565b9050919050565b60008115159050919050565b600073ffffffffffffffffffffffffffffffffffffffff82169050919050565b6000819050919050565b60006116808261166b565b91507fffffffffffffffffffffffffffffffffffffffffffffffffffffffffffffffff8214156116b3576116b26116be565b5b600182019050919050565b7f4e487b7100000000000000000000000000000000000000000000000000000000600052601160045260246000fd5b7f444541444c494e455f4e4f545f45584345454445440000000000000000000000600082015250565b7f4f776e61626c653a206e6577206f776e657220697320746865207a65726f206160008201527f6464726573730000000000000000000000000000000000000000000000000000602082015250565b7f50524f504f53414c5f414c52454144595f455845435554454400000000000000600082015250565b7f444541444c494e455f4558434545444544000000000000000000000000000000600082015250565b7f4e46545f4e4f545f464f525f53414c4500000000000000000000000000000000600082015250565b7f414c52454144595f564f54454400000000000000000000000000000000000000600082015250565b7f4e4f545f415f44414f5f4d454d42455200000000000000000000000000000000600082015250565b7f4f776e61626c653a2063616c6c6572206973206e6f7420746865206f776e6572600082015250565b7f4e4f545f454e4f5547485f46554e445300000000000000000000000000000000600082015250565b61188d8161162d565b811461189857600080fd5b50565b6118a48161163f565b81146118af57600080fd5b50565b600281106118bf57600080fd5b50565b6118cb8161166b565b81146118d657600080fd5b5056fea2646970667358221220343a77f38113b23acecf4af4400ad77092f65637862e37792098924d5669555c64736f6c63430008040033",
  "linkReferences": {},
  "deployedLinkReferences": {}
}